{
  "contractName": "Gather",
  "abi": [
    {
      "constant": true,
      "inputs": [],
      "name": "owner",
      "outputs": [
        {
          "name": "",
          "type": "address"
        }
      ],
      "payable": false,
      "stateMutability": "view",
      "type": "function",
      "signature": "0x8da5cb5b"
    },
    {
      "inputs": [],
      "payable": false,
      "stateMutability": "nonpayable",
      "type": "constructor",
      "signature": "constructor"
    },
    {
      "payable": false,
      "stateMutability": "nonpayable",
      "type": "fallback"
    },
    {
      "anonymous": false,
      "inputs": [
        {
          "indexed": false,
          "name": "_address",
          "type": "address"
        }
      ],
      "name": "LogAdminAdded",
      "type": "event",
      "signature": "0x873b6546df550db4e197c19f621af58777f109107ed897212d3ab52d5a9f2ede"
    },
    {
      "anonymous": false,
      "inputs": [
        {
          "indexed": false,
          "name": "_address",
          "type": "address"
        }
      ],
      "name": "LogUserAdded",
      "type": "event",
      "signature": "0x187047b56eb20e7a0313254e37dc60b8c1a9d25707114d2caaaee420b2b7ec23"
    },
    {
      "anonymous": false,
      "inputs": [
        {
          "indexed": false,
          "name": "_string",
          "type": "string"
        }
      ],
      "name": "LogNewGathering",
      "type": "event",
      "signature": "0x1a7e725a62b42061185c2c9af8f2d9f965604e2b547edb6463d33cc2895743f2"
    },
    {
      "anonymous": false,
      "inputs": [
        {
          "indexed": false,
          "name": "_string",
          "type": "string"
        },
        {
          "indexed": false,
          "name": "_address",
          "type": "address"
        }
      ],
      "name": "LogGatheringJoined",
      "type": "event",
      "signature": "0xabaf8ccb8d157ccdbd12c46218c969688001139cff697e11270756c64f3e02fe"
    },
    {
      "anonymous": false,
      "inputs": [
        {
          "indexed": false,
          "name": "_string",
          "type": "string"
        },
        {
          "indexed": false,
          "name": "_address",
          "type": "address"
        }
      ],
      "name": "LogLeftGathering",
      "type": "event",
      "signature": "0x6a232fe59620d8d63f773cae432d2aaf20bc5373b0403dbb3bbf4d6dc5712798"
    },
    {
      "anonymous": false,
      "inputs": [
        {
          "indexed": false,
          "name": "_string",
          "type": "string"
        }
      ],
      "name": "LogNameChange",
      "type": "event",
      "signature": "0xdae5c6118bdacdb1a752359d2bdaec91973aa87c89a76a80b6d615293b9b3cfc"
    },
    {
      "anonymous": false,
      "inputs": [
        {
          "indexed": false,
          "name": "_string",
          "type": "string"
        }
      ],
      "name": "LogDescriptionChange",
      "type": "event",
      "signature": "0xe51c705409109ae79634c3a055806e976b0d64ba3930c634ff706e6a6c282121"
    },
    {
      "constant": false,
      "inputs": [],
      "name": "kill",
      "outputs": [],
      "payable": false,
      "stateMutability": "nonpayable",
      "type": "function",
      "signature": "0x41c0e1b5"
    },
    {
      "constant": false,
      "inputs": [
        {
          "name": "_displayName",
          "type": "string"
        }
      ],
      "name": "addUser",
      "outputs": [
        {
          "name": "",
          "type": "address"
        }
      ],
      "payable": false,
      "stateMutability": "nonpayable",
      "type": "function",
      "signature": "0x18b8275a"
    },
    {
      "constant": false,
      "inputs": [
        {
          "name": "newAdminAddress",
          "type": "address"
        }
      ],
      "name": "addAdmin",
      "outputs": [
        {
          "name": "",
          "type": "address"
        }
      ],
      "payable": false,
      "stateMutability": "nonpayable",
      "type": "function",
      "signature": "0x70480275"
    },
    {
      "constant": false,
      "inputs": [
        {
          "name": "_name",
          "type": "string"
        }
      ],
      "name": "organizeNewGathering",
      "outputs": [
        {
          "name": "",
          "type": "string"
        }
      ],
      "payable": false,
      "stateMutability": "nonpayable",
      "type": "function",
      "signature": "0xa7889969"
    },
    {
      "constant": false,
      "inputs": [
        {
          "name": "index",
          "type": "uint256"
        },
        {
          "name": "gatheringName",
          "type": "string"
        }
      ],
      "name": "setGatheringName",
      "outputs": [
        {
          "name": "",
          "type": "string"
        }
      ],
      "payable": false,
      "stateMutability": "nonpayable",
      "type": "function",
      "signature": "0x101c468a"
    },
    {
      "constant": false,
      "inputs": [
        {
          "name": "index",
          "type": "uint256"
        }
      ],
      "name": "removeGathering",
      "outputs": [
        {
          "name": "",
          "type": "bool"
        }
      ],
      "payable": false,
      "stateMutability": "nonpayable",
      "type": "function",
      "signature": "0x6ab962f2"
    },
    {
      "constant": false,
      "inputs": [
        {
          "name": "index",
          "type": "uint256"
        }
      ],
      "name": "joinGathering",
      "outputs": [
        {
          "name": "",
          "type": "bool"
        }
      ],
      "payable": false,
      "stateMutability": "nonpayable",
      "type": "function",
      "signature": "0x371f5d41"
    },
    {
      "constant": false,
      "inputs": [
        {
          "name": "index",
          "type": "uint256"
        },
        {
          "name": "participantIndex",
          "type": "uint256"
        }
      ],
      "name": "leaveGathering",
      "outputs": [
        {
          "name": "",
          "type": "bool"
        }
      ],
      "payable": false,
      "stateMutability": "nonpayable",
      "type": "function",
      "signature": "0x178e9a19"
    },
    {
      "constant": false,
      "inputs": [
        {
          "name": "index",
          "type": "uint256"
        },
        {
          "name": "participantIndex",
          "type": "uint256"
        }
      ],
      "name": "removeParticipant",
      "outputs": [
        {
          "name": "",
          "type": "bool"
        }
      ],
      "payable": false,
      "stateMutability": "nonpayable",
      "type": "function",
      "signature": "0x44508ad0"
    }
  ],
  "bytecode": "0x60806040523480156200001157600080fd5b50336000806101000a81548173ffffffffffffffffffffffffffffffffffffffff021916908373ffffffffffffffffffffffffffffffffffffffff160217905550608060405190810160405280600060018111156200006c57fe5b81526020016040805190810160405280600581526020017f41646d696e000000000000000000000000000000000000000000000000000000815250815260200160008152602001600280549050815250600160003373ffffffffffffffffffffffffffffffffffffffff1673ffffffffffffffffffffffffffffffffffffffff16815260200190815260200160002060008201518160000160006101000a81548160ff021916908360018111156200012057fe5b02179055506020820151816001019080519060200190620001439291906200022a565b50604082015181600201556060820151816003015590505060023390806001815401808255809150509060018203906000526020600020016000909192909190916101000a81548173ffffffffffffffffffffffffffffffffffffffff021916908373ffffffffffffffffffffffffffffffffffffffff160217905550507f873b6546df550db4e197c19f621af58777f109107ed897212d3ab52d5a9f2ede33604051808273ffffffffffffffffffffffffffffffffffffffff1673ffffffffffffffffffffffffffffffffffffffff16815260200191505060405180910390a1620002d9565b828054600181600116156101000203166002900490600052602060002090601f016020900481019282601f106200026d57805160ff19168380011785556200029e565b828001600101855582156200029e579182015b828111156200029d57825182559160200191906001019062000280565b5b509050620002ad9190620002b1565b5090565b620002d691905b80821115620002d2576000816000905550600101620002b8565b5090565b90565b612f6a80620002e96000396000f3fe6080604052600436106100a4576000357c0100000000000000000000000000000000000000000000000000000000900463ffffffff168063101c468a146100b3578063178e9a19146101fe57806318b8275a1461025b578063371f5d411461036357806341c0e1b5146103b657806344508ad0146103cd5780636ab962f21461042a578063704802751461047d5780638da5cb5b1461050e578063a788996914610565575b3480156100b057600080fd5b50005b3480156100bf57600080fd5b50610183600480360360408110156100d657600080fd5b8101908080359060200190929190803590602001906401000000008111156100fd57600080fd5b82018360208201111561010f57600080fd5b8035906020019184600183028401116401000000008311171561013157600080fd5b91908080601f016020809104026020016040519081016040528093929190818152602001838380828437600081840152601f19601f8201169050808301925050505050505091929192905050506106a6565b6040518080602001828103825283818151815260200191508051906020019080838360005b838110156101c35780820151818401526020810190506101a8565b50505050905090810190601f1680156101f05780820380516001836020036101000a031916815260200191505b509250505060405180910390f35b34801561020a57600080fd5b506102416004803603604081101561022157600080fd5b810190808035906020019092919080359060200190929190505050610b19565b604051808215151515815260200191505060405180910390f35b34801561026757600080fd5b506103216004803603602081101561027e57600080fd5b810190808035906020019064010000000081111561029b57600080fd5b8201836020820111156102ad57600080fd5b803590602001918460018302840111640100000000831117156102cf57600080fd5b91908080601f016020809104026020016040519081016040528093929190818152602001838380828437600081840152601f19601f820116905080830192505050505050509192919290505050611055565b604051808273ffffffffffffffffffffffffffffffffffffffff1673ffffffffffffffffffffffffffffffffffffffff16815260200191505060405180910390f35b34801561036f57600080fd5b5061039c6004803603602081101561038657600080fd5b8101908080359060200190929190505050611232565b604051808215151515815260200191505060405180910390f35b3480156103c257600080fd5b506103cb61172f565b005b3480156103d957600080fd5b50610410600480360360408110156103f057600080fd5b81019080803590602001909291908035906020019092919050505061182d565b604051808215151515815260200191505060405180910390f35b34801561043657600080fd5b506104636004803603602081101561044d57600080fd5b8101908080359060200190929190505050611d0a565b604051808215151515815260200191505060405180910390f35b34801561048957600080fd5b506104cc600480360360208110156104a057600080fd5b81019080803573ffffffffffffffffffffffffffffffffffffffff169060200190929190505050612260565b604051808273ffffffffffffffffffffffffffffffffffffffff1673ffffffffffffffffffffffffffffffffffffffff16815260200191505060405180910390f35b34801561051a57600080fd5b506105236125ab565b604051808273ffffffffffffffffffffffffffffffffffffffff1673ffffffffffffffffffffffffffffffffffffffff16815260200191505060405180910390f35b34801561057157600080fd5b5061062b6004803603602081101561058857600080fd5b81019080803590602001906401000000008111156105a557600080fd5b8201836020820111156105b757600080fd5b803590602001918460018302840111640100000000831117156105d957600080fd5b91908080601f016020809104026020016040519081016040528093929190818152602001838380828437600081840152601f19601f8201169050808301925050505050505091929192905050506125d0565b6040518080602001828103825283818151815260200191508051906020019080838360005b8381101561066b578082015181840152602081019050610650565b50505050905090810190601f1680156106985780820380516001836020036101000a031916815260200191505b509250505060405180910390f35b6060826003818154811015156106b857fe5b906000526020600020906021020160000160009054906101000a900473ffffffffffffffffffffffffffffffffffffffff1673ffffffffffffffffffffffffffffffffffffffff163373ffffffffffffffffffffffffffffffffffffffff1614151561072357600080fd5b8273__StringUtils___________________________6346bdca9a826040518263ffffffff167c0100000000000000000000000000000000000000000000000000000000028152600401808060200180602001838103835284818151815260200191508051906020019080838360005b838110156107ae578082015181840152602081019050610793565b50505050905090810190601f1680156107db5780820380516001836020036101000a031916815260200191505b50838103825260008152602001602001935050505060206040518083038186803b15801561080857600080fd5b505af415801561081c573d6000803e3d6000fd5b505050506040513d602081101561083257600080fd5b81019080805190602001909291905050501515156108b8576040517f08c379a00000000000000000000000000000000000000000000000000000000081526004018080602001828103825260168152602001807f537472696e672063616e6e6f7420626520656d7074790000000000000000000081525060200191505060405180910390fd5b6108c0612d14565b6003868154811015156108cf57fe5b9060005260206000209060210201608060405190810160405290816000820160009054906101000a900473ffffffffffffffffffffffffffffffffffffffff1673ffffffffffffffffffffffffffffffffffffffff1673ffffffffffffffffffffffffffffffffffffffff168152602001600182018054600181600116156101000203166002900480601f0160208091040260200160405190810160405280929190818152602001828054600181600116156101000203166002900480156109d85780601f106109ad576101008083540402835291602001916109d8565b820191906000526020600020905b8154815290600101906020018083116109bb57829003601f168201915b5050505050815260200160028201601e806020026040519081016040528092919082601e8015610a53576020028201915b8160009054906101000a900473ffffffffffffffffffffffffffffffffffffffff1673ffffffffffffffffffffffffffffffffffffffff1681526020019060010190808311610a09575b5050505050815260200160208201548152505090508481602001819052507fdae5c6118bdacdb1a752359d2bdaec91973aa87c89a76a80b6d615293b9b3cfc856040518080602001828103825283818151815260200191508051906020019080838360005b83811015610ad3578082015181840152602081019050610ab8565b50505050905090810190601f168015610b005780820380516001836020036101000a031916815260200191505b509250505060405180910390a184935050505092915050565b6000336000600280549050111515610b99576040517f08c379a000000000000000000000000000000000000000000000000000000000815260040180806020018281038252601a8152602001807f54686572652069732063757272656e746c79206e6f207573657200000000000081525060200191505060405180910390fd5b8073ffffffffffffffffffffffffffffffffffffffff166002600160008473ffffffffffffffffffffffffffffffffffffffff1673ffffffffffffffffffffffffffffffffffffffff16815260200190815260200160002060030154815481101515610c0157fe5b9060005260206000200160009054906101000a900473ffffffffffffffffffffffffffffffffffffffff1673ffffffffffffffffffffffffffffffffffffffff16141515610cb7576040517f08c379a00000000000000000000000000000000000000000000000000000000081526004018080602001828103825260138152602001807f5573657220646f6573206e6f742065786973740000000000000000000000000081525060200191505060405180910390fd5b610cbf612d14565b600385815481101515610cce57fe5b9060005260206000209060210201608060405190810160405290816000820160009054906101000a900473ffffffffffffffffffffffffffffffffffffffff1673ffffffffffffffffffffffffffffffffffffffff1673ffffffffffffffffffffffffffffffffffffffff168152602001600182018054600181600116156101000203166002900480601f016020809104026020016040519081016040528092919081815260200182805460018160011615610100020316600290048015610dd75780601f10610dac57610100808354040283529160200191610dd7565b820191906000526020600020905b815481529060010190602001808311610dba57829003601f168201915b5050505050815260200160028201601e806020026040519081016040528092919082601e8015610e52576020028201915b8160009054906101000a900473ffffffffffffffffffffffffffffffffffffffff1673ffffffffffffffffffffffffffffffffffffffff1681526020019060010190808311610e08575b5050505050815260200160208201548152505090506001816040015150601e03841415610eaf57806040015184601e81101515610e8b57fe5b60200201600073ffffffffffffffffffffffffffffffffffffffff16815250610f75565b600081604001516001836040015150601e03601e81101515610ecd57fe5b6020020151905080826040015186601e81101515610ee757fe5b602002019073ffffffffffffffffffffffffffffffffffffffff16908173ffffffffffffffffffffffffffffffffffffffff1681525050600082604001516001846040015150601e03601e81101515610f3c57fe5b602002019073ffffffffffffffffffffffffffffffffffffffff16908173ffffffffffffffffffffffffffffffffffffffff1681525050505b7f6a232fe59620d8d63f773cae432d2aaf20bc5373b0403dbb3bbf4d6dc571279881602001513360405180806020018373ffffffffffffffffffffffffffffffffffffffff1673ffffffffffffffffffffffffffffffffffffffff168152602001828103825284818151815260200191508051906020019080838360005b8381101561100e578082015181840152602081019050610ff3565b50505050905090810190601f16801561103b5780820380516001836020036101000a031916815260200191505b50935050505060405180910390a160019250505092915050565b60008073ffffffffffffffffffffffffffffffffffffffff163373ffffffffffffffffffffffffffffffffffffffff161415151561109257600080fd5b6080604051908101604052806001808111156110aa57fe5b815260200183815260200160008152602001600280549050815250600160003373ffffffffffffffffffffffffffffffffffffffff1673ffffffffffffffffffffffffffffffffffffffff16815260200190815260200160002060008201518160000160006101000a81548160ff0219169083600181111561112857fe5b02179055506020820151816001019080519060200190611149929190612d5a565b50604082015181600201556060820151816003015590505060023390806001815401808255809150509060018203906000526020600020016000909192909190916101000a81548173ffffffffffffffffffffffffffffffffffffffff021916908373ffffffffffffffffffffffffffffffffffffffff160217905550507f187047b56eb20e7a0313254e37dc60b8c1a9d25707114d2caaaee420b2b7ec2333604051808273ffffffffffffffffffffffffffffffffffffffff1673ffffffffffffffffffffffffffffffffffffffff16815260200191505060405180910390a1339050919050565b60003360006002805490501115156112b2576040517f08c379a000000000000000000000000000000000000000000000000000000000815260040180806020018281038252601a8152602001807f54686572652069732063757272656e746c79206e6f207573657200000000000081525060200191505060405180910390fd5b8073ffffffffffffffffffffffffffffffffffffffff166002600160008473ffffffffffffffffffffffffffffffffffffffff1673ffffffffffffffffffffffffffffffffffffffff1681526020019081526020016000206003015481548110151561131a57fe5b9060005260206000200160009054906101000a900473ffffffffffffffffffffffffffffffffffffffff1673ffffffffffffffffffffffffffffffffffffffff161415156113d0576040517f08c379a00000000000000000000000000000000000000000000000000000000081526004018080602001828103825260138152602001807f5573657220646f6573206e6f742065786973740000000000000000000000000081525060200191505060405180910390fd5b6113d8612d14565b6003848154811015156113e757fe5b9060005260206000209060210201608060405190810160405290816000820160009054906101000a900473ffffffffffffffffffffffffffffffffffffffff1673ffffffffffffffffffffffffffffffffffffffff1673ffffffffffffffffffffffffffffffffffffffff168152602001600182018054600181600116156101000203166002900480601f0160208091040260200160405190810160405280929190818152602001828054600181600116156101000203166002900480156114f05780601f106114c5576101008083540402835291602001916114f0565b820191906000526020600020905b8154815290600101906020018083116114d357829003601f168201915b5050505050815260200160028201601e806020026040519081016040528092919082601e801561156b576020028201915b8160009054906101000a900473ffffffffffffffffffffffffffffffffffffffff1673ffffffffffffffffffffffffffffffffffffffff1681526020019060010190808311611521575b505050505081526020016020820154815250509050600061158b82612d03565b9050601e81101515611605576040517f08c379a00000000000000000000000000000000000000000000000000000000081526004018080602001828103825260118152602001807f476174686572696e672069732066756c6c00000000000000000000000000000081525060200191505060405180910390fd5b33826040015182601e8110151561161857fe5b602002019073ffffffffffffffffffffffffffffffffffffffff16908173ffffffffffffffffffffffffffffffffffffffff16815250507fabaf8ccb8d157ccdbd12c46218c969688001139cff697e11270756c64f3e02fe82602001513360405180806020018373ffffffffffffffffffffffffffffffffffffffff1673ffffffffffffffffffffffffffffffffffffffff168152602001828103825284818151815260200191508051906020019080838360005b838110156116e85780820151818401526020810190506116cd565b50505050905090810190601f1680156117155780820380516001836020036101000a031916815260200191505b50935050505060405180910390a160019350505050919050565b6000809054906101000a900473ffffffffffffffffffffffffffffffffffffffff1673ffffffffffffffffffffffffffffffffffffffff163373ffffffffffffffffffffffffffffffffffffffff161415156117f3576040517f08c379a000000000000000000000000000000000000000000000000000000000815260040180806020018281038252601a8152602001807f436f6e7472616374206f776e657220616363657373206f6e6c7900000000000081525060200191505060405180910390fd5b6000809054906101000a900473ffffffffffffffffffffffffffffffffffffffff1673ffffffffffffffffffffffffffffffffffffffff16ff5b60003360006002805490501115156118ad576040517f08c379a000000000000000000000000000000000000000000000000000000000815260040180806020018281038252601a8152602001807f54686572652069732063757272656e746c79206e6f207573657200000000000081525060200191505060405180910390fd5b8073ffffffffffffffffffffffffffffffffffffffff166002600160008473ffffffffffffffffffffffffffffffffffffffff1673ffffffffffffffffffffffffffffffffffffffff1681526020019081526020016000206003015481548110151561191557fe5b9060005260206000200160009054906101000a900473ffffffffffffffffffffffffffffffffffffffff1673ffffffffffffffffffffffffffffffffffffffff161415156119cb576040517f08c379a00000000000000000000000000000000000000000000000000000000081526004018080602001828103825260138152602001807f5573657220646f6573206e6f742065786973740000000000000000000000000081525060200191505060405180910390fd5b836003818154811015156119db57fe5b906000526020600020906021020160000160009054906101000a900473ffffffffffffffffffffffffffffffffffffffff1673ffffffffffffffffffffffffffffffffffffffff163373ffffffffffffffffffffffffffffffffffffffff16141515611a4657600080fd5b611a4e612d14565b600386815481101515611a5d57fe5b9060005260206000209060210201608060405190810160405290816000820160009054906101000a900473ffffffffffffffffffffffffffffffffffffffff1673ffffffffffffffffffffffffffffffffffffffff1673ffffffffffffffffffffffffffffffffffffffff168152602001600182018054600181600116156101000203166002900480601f016020809104026020016040519081016040528092919081815260200182805460018160011615610100020316600290048015611b665780601f10611b3b57610100808354040283529160200191611b66565b820191906000526020600020905b815481529060010190602001808311611b4957829003601f168201915b5050505050815260200160028201601e806020026040519081016040528092919082601e8015611be1576020028201915b8160009054906101000a900473ffffffffffffffffffffffffffffffffffffffff1673ffffffffffffffffffffffffffffffffffffffff1681526020019060010190808311611b97575b5050505050815260200160208201548152505090506000611c0182612d03565b9050600060018203905080871415611c4957826040015181601e81101515611c2557fe5b60200201600073ffffffffffffffffffffffffffffffffffffffff16815250611cfb565b6000836040015182601e81101515611c5d57fe5b6020020151905080846040015189601e81101515611c7757fe5b602002019073ffffffffffffffffffffffffffffffffffffffff16908173ffffffffffffffffffffffffffffffffffffffff16815250506000846040015183601e81101515611cc257fe5b602002019073ffffffffffffffffffffffffffffffffffffffff16908173ffffffffffffffffffffffffffffffffffffffff1681525050505b60019550505050505092915050565b6000336000600280549050111515611d8a576040517f08c379a000000000000000000000000000000000000000000000000000000000815260040180806020018281038252601a8152602001807f54686572652069732063757272656e746c79206e6f207573657200000000000081525060200191505060405180910390fd5b8073ffffffffffffffffffffffffffffffffffffffff166002600160008473ffffffffffffffffffffffffffffffffffffffff1673ffffffffffffffffffffffffffffffffffffffff16815260200190815260200160002060030154815481101515611df257fe5b9060005260206000200160009054906101000a900473ffffffffffffffffffffffffffffffffffffffff1673ffffffffffffffffffffffffffffffffffffffff16141515611ea8576040517f08c379a00000000000000000000000000000000000000000000000000000000081526004018080602001828103825260138152602001807f5573657220646f6573206e6f742065786973740000000000000000000000000081525060200191505060405180910390fd5b82600381815481101515611eb857fe5b906000526020600020906021020160000160009054906101000a900473ffffffffffffffffffffffffffffffffffffffff1673ffffffffffffffffffffffffffffffffffffffff163373ffffffffffffffffffffffffffffffffffffffff16141515611f2357600080fd5b60006001600380549050039050611f38612d14565b600382815481101515611f4757fe5b9060005260206000209060210201608060405190810160405290816000820160009054906101000a900473ffffffffffffffffffffffffffffffffffffffff1673ffffffffffffffffffffffffffffffffffffffff1673ffffffffffffffffffffffffffffffffffffffff168152602001600182018054600181600116156101000203166002900480601f0160208091040260200160405190810160405280929190818152602001828054600181600116156101000203166002900480156120505780601f1061202557610100808354040283529160200191612050565b820191906000526020600020905b81548152906001019060200180831161203357829003601f168201915b5050505050815260200160028201601e806020026040519081016040528092919082601e80156120cb576020028201915b8160009054906101000a900473ffffffffffffffffffffffffffffffffffffffff1673ffffffffffffffffffffffffffffffffffffffff1681526020019060010190808311612081575b505050505081526020016020820154815250509050806003878154811015156120f057fe5b906000526020600020906021020160008201518160000160006101000a81548173ffffffffffffffffffffffffffffffffffffffff021916908373ffffffffffffffffffffffffffffffffffffffff1602179055506020820151816001019080519060200190612161929190612d5a565b5060408201518160020190601e612179929190612dda565b5060608201518160200155905050858160600181815250506003828154811015156121a057fe5b9060005260206000209060210201600080820160006101000a81549073ffffffffffffffffffffffffffffffffffffffff02191690556001820160006121e69190612e57565b6002820160006121f69190612e9f565b60208201600090555050600160003373ffffffffffffffffffffffffffffffffffffffff1673ffffffffffffffffffffffffffffffffffffffff16815260200190815260200160002060020160008154809291906001900391905055506001945050505050919050565b60008160006002805490501115156122e0576040517f08c379a000000000000000000000000000000000000000000000000000000000815260040180806020018281038252601a8152602001807f54686572652069732063757272656e746c79206e6f207573657200000000000081525060200191505060405180910390fd5b8073ffffffffffffffffffffffffffffffffffffffff166002600160008473ffffffffffffffffffffffffffffffffffffffff1673ffffffffffffffffffffffffffffffffffffffff1681526020019081526020016000206003015481548110151561234857fe5b9060005260206000200160009054906101000a900473ffffffffffffffffffffffffffffffffffffffff1673ffffffffffffffffffffffffffffffffffffffff161415156123fe576040517f08c379a00000000000000000000000000000000000000000000000000000000081526004018080602001828103825260138152602001807f5573657220646f6573206e6f742065786973740000000000000000000000000081525060200191505060405180910390fd5b6000600181111561240b57fe5b600160003373ffffffffffffffffffffffffffffffffffffffff1673ffffffffffffffffffffffffffffffffffffffff16815260200190815260200160002060000160009054906101000a900460ff16600181111561246657fe5b1415156124db576040517f08c379a00000000000000000000000000000000000000000000000000000000081526004018080602001828103825260128152602001807f41646d696e20616363657373206f6e6c7921000000000000000000000000000081525060200191505060405180910390fd5b6000600160008573ffffffffffffffffffffffffffffffffffffffff1673ffffffffffffffffffffffffffffffffffffffff16815260200190815260200160002060000160006101000a81548160ff0219169083600181111561253a57fe5b02179055507f873b6546df550db4e197c19f621af58777f109107ed897212d3ab52d5a9f2ede83604051808273ffffffffffffffffffffffffffffffffffffffff1673ffffffffffffffffffffffffffffffffffffffff16815260200191505060405180910390a182915050919050565b6000809054906101000a900473ffffffffffffffffffffffffffffffffffffffff1681565b6060336000600280549050111515612650576040517f08c379a000000000000000000000000000000000000000000000000000000000815260040180806020018281038252601a8152602001807f54686572652069732063757272656e746c79206e6f207573657200000000000081525060200191505060405180910390fd5b8073ffffffffffffffffffffffffffffffffffffffff166002600160008473ffffffffffffffffffffffffffffffffffffffff1673ffffffffffffffffffffffffffffffffffffffff168152602001908152602001600020600301548154811015156126b857fe5b9060005260206000200160009054906101000a900473ffffffffffffffffffffffffffffffffffffffff1673ffffffffffffffffffffffffffffffffffffffff1614151561276e576040517f08c379a00000000000000000000000000000000000000000000000000000000081526004018080602001828103825260138152602001807f5573657220646f6573206e6f742065786973740000000000000000000000000081525060200191505060405180910390fd5b600160003373ffffffffffffffffffffffffffffffffffffffff1673ffffffffffffffffffffffffffffffffffffffff168152602001908152602001600020600201548373__StringUtils___________________________6346bdca9a826040518263ffffffff167c0100000000000000000000000000000000000000000000000000000000028152600401808060200180602001838103835284818151815260200191508051906020019080838360005b8381101561283c578082015181840152602081019050612821565b50505050905090810190601f1680156128695780820380516001836020036101000a031916815260200191505b50838103825260008152602001602001935050505060206040518083038186803b15801561289657600080fd5b505af41580156128aa573d6000803e3d6000fd5b505050506040513d60208110156128c057600080fd5b8101908080519060200190929190505050151515612946576040517f08c379a00000000000000000000000000000000000000000000000000000000081526004018080602001828103825260168152602001807f537472696e672063616e6e6f7420626520656d7074790000000000000000000081525060200191505060405180910390fd5b61294e612d14565b6003808054905081548110151561296157fe5b9060005260206000209060210201608060405190810160405290816000820160009054906101000a900473ffffffffffffffffffffffffffffffffffffffff1673ffffffffffffffffffffffffffffffffffffffff1673ffffffffffffffffffffffffffffffffffffffff168152602001600182018054600181600116156101000203166002900480601f016020809104026020016040519081016040528092919081815260200182805460018160011615610100020316600290048015612a6a5780601f10612a3f57610100808354040283529160200191612a6a565b820191906000526020600020905b815481529060010190602001808311612a4d57829003601f168201915b5050505050815260200160028201601e806020026040519081016040528092919082601e8015612ae5576020028201915b8160009054906101000a900473ffffffffffffffffffffffffffffffffffffffff1673ffffffffffffffffffffffffffffffffffffffff1681526020019060010190808311612a9b575b50505050508152602001602082015481525050905033816000019073ffffffffffffffffffffffffffffffffffffffff16908173ffffffffffffffffffffffffffffffffffffffff1681525050858160200181905250600380549050816060018181525050600160003373ffffffffffffffffffffffffffffffffffffffff1673ffffffffffffffffffffffffffffffffffffffff168152602001908152602001600020600201600081548092919060010191905055506003819080600181540180825580915050906001820390600052602060002090602102016000909192909190915060008201518160000160006101000a81548173ffffffffffffffffffffffffffffffffffffffff021916908373ffffffffffffffffffffffffffffffffffffffff1602179055506020820151816001019080519060200190612c2d929190612d5a565b5060408201518160020190601e612c45929190612dda565b50606082015181602001555050507f1a7e725a62b42061185c2c9af8f2d9f965604e2b547edb6463d33cc2895743f281602001516040518080602001828103825283818151815260200191508051906020019080838360005b83811015612cb9578082015181840152602081019050612c9e565b50505050905090810190601f168015612ce65780820380516001836020036101000a031916815260200191505b509250505060405180910390a18060200151945050505050919050565b6000816040015150601e9050919050565b61042060405190810160405280600073ffffffffffffffffffffffffffffffffffffffff16815260200160608152602001612d4d612eb2565b8152602001600081525090565b828054600181600116156101000203166002900490600052602060002090601f016020900481019282601f10612d9b57805160ff1916838001178555612dc9565b82800160010185558215612dc9579182015b82811115612dc8578251825591602001919060010190612dad565b5b509050612dd69190612ed6565b5090565b82601e8101928215612e46579160200282015b82811115612e455782518260006101000a81548173ffffffffffffffffffffffffffffffffffffffff021916908373ffffffffffffffffffffffffffffffffffffffff16021790555091602001919060010190612ded565b5b509050612e539190612efb565b5090565b50805460018160011615610100020316600290046000825580601f10612e7d5750612e9c565b601f016020900490600052602060002090810190612e9b9190612ed6565b5b50565b5080601e0190612eaf9190612ed6565b50565b6103c060405190810160405280601e90602082028038833980820191505090505090565b612ef891905b80821115612ef4576000816000905550600101612edc565b5090565b90565b612f3b91905b80821115612f3757600081816101000a81549073ffffffffffffffffffffffffffffffffffffffff021916905550600101612f01565b5090565b9056fea165627a7a72305820cf61560c684383606521cb23aafb9d82dcee8f1f5460df16ba44123354085e750029",
  "source": "pragma solidity ^0.5.0;\n\nimport \"../libraries/StringUtils.sol\";\n\ncontract Gather {\n    address payable public owner;\n    enum UserStatus { Admin, Regular }\n\n    struct User {\n        UserStatus status;\n        string displayName;\n        uint gatheringCount;\n        uint index;\n    }\n    mapping(address => User) private users;\n    address[] private userIndex;\n\n    uint private constant MAX_GATHERING_COUNT = 5;\n    uint private constant MAX_PARTICIPANT_COUNT = 30;\n    struct Gathering {\n        address organizer;\n        string name;\n        address[MAX_PARTICIPANT_COUNT] participants;\n        uint index;\n    }\n    Gathering[] private gatheringIndex;\n\n    event LogAdminAdded(address _address);\n    event LogUserAdded(address _address);\n    event LogNewGathering(string _string);\n    event LogGatheringJoined(string _string, address _address);\n    event LogLeftGathering(string _string, address _address);\n    event LogNameChange(string _string);\n    event LogDescriptionChange(string _string);\n\n    modifier verifyCaller() {\n        require(msg.sender != address(0));\n        _;\n    }\n\n    modifier verifyAdmin() {\n        require(users[msg.sender].status == UserStatus.Admin, \"Admin access only!\"); \n        _;\n    }\n\n    modifier verifyUser(address _address) {\n        require(userIndex.length > 0, \"There is currently no user\");\n        require(userIndex[users[_address].index] == _address, \"User does not exist\");\n        _;\n    }\n\n    modifier verifyOrganizer(uint index) {\n        require(msg.sender == gatheringIndex[index].organizer ); \n        _;\n    }\n\n    modifier organizedGatheringBelowMax(uint count) {\n        count <= MAX_GATHERING_COUNT;\n        _;\n    }\n\n    modifier notEmpty(string memory _string) {\n        require (!StringUtils.equal(_string, \"\"), \"String cannot be empty\");\n        _;\n    }\n\n    // Constructor\n    constructor()\n        public\n    {\n        owner = msg.sender;\n        users[msg.sender] = User({status: UserStatus.Admin, displayName: \"Admin\", gatheringCount: 0, index: userIndex.length});\n        userIndex.push(msg.sender);\n        emit LogAdminAdded(msg.sender);\n    }\n\n    function kill() public {\n        require(msg.sender == owner, \"Contract owner access only\");\n        selfdestruct(owner);\n    }\n\n    // Functions\n\n    // Adds a new user to the platform\n    function addUser(string memory _displayName)\n        public\n        verifyCaller()\n        returns(address)\n    {\n        users[msg.sender] = User({status: UserStatus.Regular, displayName: _displayName, gatheringCount: 0, index: userIndex.length});\n        userIndex.push(msg.sender);\n        emit LogUserAdded(msg.sender);\n        return msg.sender;\n    }\n\n    // An admin can make an existing user an admin\n    function addAdmin(address newAdminAddress)\n        public\n        verifyUser(newAdminAddress)\n        verifyAdmin()\n        returns(address)\n    {\n        users[newAdminAddress].status = UserStatus.Admin;\n        emit LogAdminAdded(newAdminAddress);\n        return newAdminAddress;\n    }\n\n    // Any user can organize a new gathering\n    // Each user can organize up to a maximum of 5 gatherings\n    function organizeNewGathering(string memory _name)\n        public\n        verifyUser(msg.sender)\n        organizedGatheringBelowMax(users[msg.sender].gatheringCount)\n        notEmpty(_name)\n        returns(string memory)\n    {\n        Gathering memory g = gatheringIndex[gatheringIndex.length];\n        g.organizer = msg.sender;\n        g.name = _name;\n        g.index = gatheringIndex.length;\n\n        users[msg.sender].gatheringCount++;\n        gatheringIndex.push(g);\n        emit LogNewGathering(g.name);\n        return g.name;\n    }\n\n    // The organizer can rename the gathering\n    function setGatheringName(uint index, string memory gatheringName)\n        public\n        verifyOrganizer(index)\n        notEmpty(gatheringName)\n        returns(string memory)\n    {\n        Gathering memory g = gatheringIndex[index];\n        g.name = gatheringName;\n        emit LogNameChange(gatheringName);\n        return gatheringName;\n    }\n\n    // The gatherings organizer can remove a gathering\n    function removeGathering(uint index)\n        public\n        verifyUser(msg.sender)\n        verifyOrganizer(index)\n        returns(bool)\n    {\n        // remove from gatheringIndex\n        uint lastIndex = gatheringIndex.length - 1;\n        Gathering memory lastIndexGathering = gatheringIndex[lastIndex];\n        gatheringIndex[index] = lastIndexGathering;\n        lastIndexGathering.index = index;\n        delete gatheringIndex[lastIndex];\n    \n        // Update organizer's gathering count\n        users[msg.sender].gatheringCount--;\n        return true;\n    }\n\n    function getNumberOfParticipants(Gathering memory g) private pure returns(uint){\n        return g.participants.length;\n    }\n\n    // Any user can join any gathering\n    function joinGathering(uint index)\n        public\n        verifyUser(msg.sender)\n        returns(bool)\n    {\n        Gathering memory requestedGathering = gatheringIndex[index];\n        uint participantCount = getNumberOfParticipants(requestedGathering);\n        require(participantCount < MAX_PARTICIPANT_COUNT, \"Gathering is full\");\n        requestedGathering.participants[participantCount] = msg.sender;\n        emit LogGatheringJoined(requestedGathering.name, msg.sender);\n        return true;\n    }\n\n    // A participant can leave a gathering\n    function leaveGathering(uint index, uint participantIndex)\n        public\n        verifyUser(msg.sender)\n        returns(bool)\n    {\n        Gathering memory requestedGathering = gatheringIndex[index];\n        if(participantIndex == (requestedGathering.participants.length - 1)) {\n            delete requestedGathering.participants[participantIndex];\n        } else {\n            address lastParticipant = requestedGathering.participants[requestedGathering.participants.length - 1];\n            requestedGathering.participants[participantIndex] = lastParticipant;\n            requestedGathering.participants[requestedGathering.participants.length - 1] = address(0);\n        }\n        emit LogLeftGathering(requestedGathering.name, msg.sender);\n        return true;\n    }\n\n    // A gathering's organizer can remove a participant\n    function removeParticipant(uint index, uint participantIndex)\n        public\n        verifyUser(msg.sender)\n        verifyOrganizer(index)\n        returns(bool)\n    {\n        Gathering memory requestedGathering = gatheringIndex[index];\n        uint participantCount = getNumberOfParticipants(requestedGathering);\n        uint lastIndex = participantCount - 1;\n        \n        if(participantIndex == lastIndex) {\n            delete requestedGathering.participants[lastIndex];\n        } else {\n            address lastParticipant = requestedGathering.participants[lastIndex];\n            requestedGathering.participants[participantIndex] = lastParticipant;\n            requestedGathering.participants[lastIndex] = address(0);\n        }\n        return true;\n    }\n\n    // Fallback function\n    function() external { msg.sender; }\n}\n",
  "sourcePath": "/Users/elsha/ethDevBootcamp/final-project-elshaek/contracts/Gather.sol",
  "compiler": {
    "name": "solc",
    "version": "0.5.0+commit.1d4f565a.Emscripten.clang"
  },
  "schemaVersion": "3.0.0",
  "updatedAt": "2019-01-27T14:46:49.825Z",
  "devdoc": {
    "methods": {}
  },
  "userdoc": {
    "methods": {}
  }
}