{
  "contractName": "Gather",
  "abi": [
    {
      "constant": true,
      "inputs": [],
      "name": "owner",
      "outputs": [
        {
          "name": "",
          "type": "address"
        }
      ],
      "payable": false,
      "stateMutability": "view",
      "type": "function",
      "signature": "0x8da5cb5b"
    },
    {
      "constant": true,
      "inputs": [
        {
          "name": "",
          "type": "uint256"
        }
      ],
      "name": "gatheringIndex",
      "outputs": [
        {
          "name": "organizer",
          "type": "address"
        },
        {
          "name": "name",
          "type": "string"
        },
        {
          "name": "index",
          "type": "uint256"
        }
      ],
      "payable": false,
      "stateMutability": "view",
      "type": "function",
      "signature": "0x959e1500"
    },
    {
      "constant": true,
      "inputs": [
        {
          "name": "",
          "type": "address"
        }
      ],
      "name": "users",
      "outputs": [
        {
          "name": "status",
          "type": "uint8"
        },
        {
          "name": "displayName",
          "type": "string"
        },
        {
          "name": "gatheringCount",
          "type": "uint256"
        },
        {
          "name": "index",
          "type": "uint256"
        }
      ],
      "payable": false,
      "stateMutability": "view",
      "type": "function",
      "signature": "0xa87430ba"
    },
    {
      "inputs": [],
      "payable": false,
      "stateMutability": "nonpayable",
      "type": "constructor",
      "signature": "constructor"
    },
    {
      "payable": false,
      "stateMutability": "nonpayable",
      "type": "fallback"
    },
    {
      "anonymous": false,
      "inputs": [
        {
          "indexed": false,
          "name": "_address",
          "type": "address"
        }
      ],
      "name": "LogAdminAdded",
      "type": "event",
      "signature": "0x873b6546df550db4e197c19f621af58777f109107ed897212d3ab52d5a9f2ede"
    },
    {
      "anonymous": false,
      "inputs": [
        {
          "indexed": false,
          "name": "_address",
          "type": "address"
        }
      ],
      "name": "LogUserAdded",
      "type": "event",
      "signature": "0x187047b56eb20e7a0313254e37dc60b8c1a9d25707114d2caaaee420b2b7ec23"
    },
    {
      "anonymous": false,
      "inputs": [
        {
          "indexed": false,
          "name": "count",
          "type": "uint256"
        },
        {
          "indexed": false,
          "name": "_string",
          "type": "string"
        }
      ],
      "name": "LogNewGathering",
      "type": "event",
      "signature": "0x3d30e143bc7105c6f61a763eaf49de50193c86d8dee427afe8de8a8cc39c7ddf"
    },
    {
      "anonymous": false,
      "inputs": [
        {
          "indexed": false,
          "name": "_string",
          "type": "string"
        },
        {
          "indexed": false,
          "name": "_address",
          "type": "address"
        }
      ],
      "name": "LogGatheringJoined",
      "type": "event",
      "signature": "0xabaf8ccb8d157ccdbd12c46218c969688001139cff697e11270756c64f3e02fe"
    },
    {
      "anonymous": false,
      "inputs": [
        {
          "indexed": false,
          "name": "_string",
          "type": "string"
        },
        {
          "indexed": false,
          "name": "_address",
          "type": "address"
        }
      ],
      "name": "LogLeftGathering",
      "type": "event",
      "signature": "0x6a232fe59620d8d63f773cae432d2aaf20bc5373b0403dbb3bbf4d6dc5712798"
    },
    {
      "anonymous": false,
      "inputs": [
        {
          "indexed": false,
          "name": "_string",
          "type": "string"
        }
      ],
      "name": "LogNameChange",
      "type": "event",
      "signature": "0xdae5c6118bdacdb1a752359d2bdaec91973aa87c89a76a80b6d615293b9b3cfc"
    },
    {
      "anonymous": false,
      "inputs": [
        {
          "indexed": false,
          "name": "_string",
          "type": "string"
        }
      ],
      "name": "LogDescriptionChange",
      "type": "event",
      "signature": "0xe51c705409109ae79634c3a055806e976b0d64ba3930c634ff706e6a6c282121"
    },
    {
      "constant": false,
      "inputs": [],
      "name": "kill",
      "outputs": [],
      "payable": false,
      "stateMutability": "nonpayable",
      "type": "function",
      "signature": "0x41c0e1b5"
    },
    {
      "constant": false,
      "inputs": [],
      "name": "toggleGatheringActive",
      "outputs": [],
      "payable": false,
      "stateMutability": "nonpayable",
      "type": "function",
      "signature": "0xbdc86c76"
    },
    {
      "constant": false,
      "inputs": [
        {
          "name": "_address",
          "type": "address"
        },
        {
          "name": "_displayName",
          "type": "string"
        }
      ],
      "name": "addUser",
      "outputs": [
        {
          "name": "",
          "type": "address"
        }
      ],
      "payable": false,
      "stateMutability": "nonpayable",
      "type": "function",
      "signature": "0x4b68d431"
    },
    {
      "constant": true,
      "inputs": [
        {
          "name": "_address",
          "type": "address"
        }
      ],
      "name": "getUserStatus",
      "outputs": [
        {
          "name": "userStatus",
          "type": "uint8"
        }
      ],
      "payable": false,
      "stateMutability": "view",
      "type": "function",
      "signature": "0xea0d5dcd"
    },
    {
      "constant": false,
      "inputs": [
        {
          "name": "newAdminAddress",
          "type": "address"
        }
      ],
      "name": "addAdmin",
      "outputs": [
        {
          "name": "",
          "type": "address"
        }
      ],
      "payable": false,
      "stateMutability": "nonpayable",
      "type": "function",
      "signature": "0x70480275"
    },
    {
      "constant": false,
      "inputs": [
        {
          "name": "_name",
          "type": "string"
        }
      ],
      "name": "organizeNewGathering",
      "outputs": [
        {
          "name": "",
          "type": "uint256"
        },
        {
          "name": "",
          "type": "string"
        }
      ],
      "payable": false,
      "stateMutability": "nonpayable",
      "type": "function",
      "signature": "0xa7889969"
    },
    {
      "constant": false,
      "inputs": [
        {
          "name": "index",
          "type": "uint256"
        },
        {
          "name": "gatheringName",
          "type": "string"
        }
      ],
      "name": "setGatheringName",
      "outputs": [
        {
          "name": "",
          "type": "string"
        }
      ],
      "payable": false,
      "stateMutability": "nonpayable",
      "type": "function",
      "signature": "0x101c468a"
    },
    {
      "constant": false,
      "inputs": [
        {
          "name": "index",
          "type": "uint256"
        }
      ],
      "name": "removeGathering",
      "outputs": [
        {
          "name": "",
          "type": "bool"
        }
      ],
      "payable": false,
      "stateMutability": "nonpayable",
      "type": "function",
      "signature": "0x6ab962f2"
    },
    {
      "constant": false,
      "inputs": [
        {
          "name": "index",
          "type": "uint256"
        }
      ],
      "name": "joinGathering",
      "outputs": [
        {
          "name": "",
          "type": "bool"
        }
      ],
      "payable": false,
      "stateMutability": "nonpayable",
      "type": "function",
      "signature": "0x371f5d41"
    },
    {
      "constant": false,
      "inputs": [
        {
          "name": "index",
          "type": "uint256"
        },
        {
          "name": "participantIndex",
          "type": "uint256"
        }
      ],
      "name": "leaveGathering",
      "outputs": [
        {
          "name": "",
          "type": "bool"
        }
      ],
      "payable": false,
      "stateMutability": "nonpayable",
      "type": "function",
      "signature": "0x178e9a19"
    },
    {
      "constant": false,
      "inputs": [
        {
          "name": "index",
          "type": "uint256"
        },
        {
          "name": "participantIndex",
          "type": "uint256"
        }
      ],
      "name": "removeParticipant",
      "outputs": [
        {
          "name": "",
          "type": "bool"
        }
      ],
      "payable": false,
      "stateMutability": "nonpayable",
      "type": "function",
      "signature": "0x44508ad0"
    }
  ],
  "bytecode": "0x608060405260008060006101000a81548160ff0219169083151502179055503480156200002b57600080fd5b5033600060016101000a81548173ffffffffffffffffffffffffffffffffffffffff021916908373ffffffffffffffffffffffffffffffffffffffff160217905550608060405190810160405280600060018111156200008757fe5b81526020016040805190810160405280600581526020017f41646d696e000000000000000000000000000000000000000000000000000000815250815260200160008152602001600280549050815250600160003373ffffffffffffffffffffffffffffffffffffffff1673ffffffffffffffffffffffffffffffffffffffff16815260200190815260200160002060008201518160000160006101000a81548160ff021916908360018111156200013b57fe5b021790555060208201518160010190805190602001906200015e92919062000245565b50604082015181600201556060820151816003015590505060023390806001815401808255809150509060018203906000526020600020016000909192909190916101000a81548173ffffffffffffffffffffffffffffffffffffffff021916908373ffffffffffffffffffffffffffffffffffffffff160217905550507f873b6546df550db4e197c19f621af58777f109107ed897212d3ab52d5a9f2ede33604051808273ffffffffffffffffffffffffffffffffffffffff1673ffffffffffffffffffffffffffffffffffffffff16815260200191505060405180910390a1620002f4565b828054600181600116156101000203166002900490600052602060002090601f016020900481019282601f106200028857805160ff1916838001178555620002b9565b82800160010185558215620002b9579182015b82811115620002b85782518255916020019190600101906200029b565b5b509050620002c89190620002cc565b5090565b620002f191905b80821115620002ed576000816000905550600101620002d3565b5090565b90565b61312180620003046000396000f3fe6080604052600436106100d0576000357c0100000000000000000000000000000000000000000000000000000000900463ffffffff168063101c468a146100df578063178e9a191461022a578063371f5d411461028757806341c0e1b5146102da57806344508ad0146102f15780634b68d4311461034e5780636ab962f21461047657806370480275146104c95780638da5cb5b1461055a578063959e1500146105b1578063a78899691461069f578063a87430ba146107e7578063bdc86c76146108d4578063ea0d5dcd146108eb575b3480156100dc57600080fd5b50005b3480156100eb57600080fd5b506101af6004803603604081101561010257600080fd5b81019080803590602001909291908035906020019064010000000081111561012957600080fd5b82018360208201111561013b57600080fd5b8035906020019184600183028401116401000000008311171561015d57600080fd5b91908080601f016020809104026020016040519081016040528093929190818152602001838380828437600081840152601f19601f82011690508083019250505050505050919291929050505061095e565b6040518080602001828103825283818151815260200191508051906020019080838360005b838110156101ef5780820151818401526020810190506101d4565b50505050905090810190601f16801561021c5780820380516001836020036101000a031916815260200191505b509250505060405180910390f35b34801561023657600080fd5b5061026d6004803603604081101561024d57600080fd5b810190808035906020019092919080359060200190929190505050610de4565b604051808215151515815260200191505060405180910390f35b34801561029357600080fd5b506102c0600480360360208110156102aa57600080fd5b810190808035906020019092919050505061121c565b604051808215151515815260200191505060405180910390f35b3480156102e657600080fd5b506102ef611605565b005b3480156102fd57600080fd5b506103346004803603604081101561031457600080fd5b810190808035906020019092919080359060200190929190505050611705565b604051808215151515815260200191505060405180910390f35b34801561035a57600080fd5b506104346004803603604081101561037157600080fd5b81019080803573ffffffffffffffffffffffffffffffffffffffff169060200190929190803590602001906401000000008111156103ae57600080fd5b8201836020820111156103c057600080fd5b803590602001918460018302840111640100000000831117156103e257600080fd5b91908080601f016020809104026020016040519081016040528093929190818152602001838380828437600081840152601f19601f820116905080830192505050505050509192919290505050611a93565b604051808273ffffffffffffffffffffffffffffffffffffffff1673ffffffffffffffffffffffffffffffffffffffff16815260200191505060405180910390f35b34801561048257600080fd5b506104af6004803603602081101561049957600080fd5b8101908080359060200190929190505050611c36565b604051808215151515815260200191505060405180910390f35b3480156104d557600080fd5b50610518600480360360208110156104ec57600080fd5b81019080803573ffffffffffffffffffffffffffffffffffffffff169060200190929190505050612205565b604051808273ffffffffffffffffffffffffffffffffffffffff1673ffffffffffffffffffffffffffffffffffffffff16815260200191505060405180910390f35b34801561056657600080fd5b5061056f612550565b604051808273ffffffffffffffffffffffffffffffffffffffff1673ffffffffffffffffffffffffffffffffffffffff16815260200191505060405180910390f35b3480156105bd57600080fd5b506105ea600480360360208110156105d457600080fd5b8101908080359060200190929190505050612576565b604051808473ffffffffffffffffffffffffffffffffffffffff1673ffffffffffffffffffffffffffffffffffffffff16815260200180602001838152602001828103825284818151815260200191508051906020019080838360005b83811015610662578082015181840152602081019050610647565b50505050905090810190601f16801561068f5780820380516001836020036101000a031916815260200191505b5094505050505060405180910390f35b3480156106ab57600080fd5b50610765600480360360208110156106c257600080fd5b81019080803590602001906401000000008111156106df57600080fd5b8201836020820111156106f157600080fd5b8035906020019184600183028401116401000000008311171561071357600080fd5b91908080601f016020809104026020016040519081016040528093929190818152602001838380828437600081840152601f19601f820116905080830192505050505050509192919290505050612667565b6040518083815260200180602001828103825283818151815260200191508051906020019080838360005b838110156107ab578082015181840152602081019050610790565b50505050905090810190601f1680156107d85780820380516001836020036101000a031916815260200191505b50935050505060405180910390f35b3480156107f357600080fd5b506108366004803603602081101561080a57600080fd5b81019080803573ffffffffffffffffffffffffffffffffffffffff169060200190929190505050612ca6565b6040518085600181111561084657fe5b60ff16815260200180602001848152602001838152602001828103825285818151815260200191508051906020019080838360005b8381101561089657808201518184015260208101905061087b565b50505050905090810190601f1680156108c35780820380516001836020036101000a031916815260200191505b509550505050505060405180910390f35b3480156108e057600080fd5b506108e9612d7b565b005b3480156108f757600080fd5b5061093a6004803603602081101561090e57600080fd5b81019080803573ffffffffffffffffffffffffffffffffffffffff169060200190929190505050612e82565b6040518082600181111561094a57fe5b60ff16815260200191505060405180910390f35b60608260038181548110151561097057fe5b906000526020600020906004020160000160009054906101000a900473ffffffffffffffffffffffffffffffffffffffff1673ffffffffffffffffffffffffffffffffffffffff163373ffffffffffffffffffffffffffffffffffffffff161415156109db57600080fd5b8273__StringUtils___________________________6346bdca9a826040518263ffffffff167c0100000000000000000000000000000000000000000000000000000000028152600401808060200180602001838103835284818151815260200191508051906020019080838360005b83811015610a66578082015181840152602081019050610a4b565b50505050905090810190601f168015610a935780820380516001836020036101000a031916815260200191505b50838103825260008152602001602001935050505060206040518083038186803b158015610ac057600080fd5b505af4158015610ad4573d6000803e3d6000fd5b505050506040513d6020811015610aea57600080fd5b8101908080519060200190929190505050151515610b70576040517f08c379a00000000000000000000000000000000000000000000000000000000081526004018080602001828103825260168152602001807f537472696e672063616e6e6f7420626520656d7074790000000000000000000081525060200191505060405180910390fd5b610b78612edb565b600386815481101515610b8757fe5b9060005260206000209060040201608060405190810160405290816000820160009054906101000a900473ffffffffffffffffffffffffffffffffffffffff1673ffffffffffffffffffffffffffffffffffffffff1673ffffffffffffffffffffffffffffffffffffffff168152602001600182018054600181600116156101000203166002900480601f016020809104026020016040519081016040528092919081815260200182805460018160011615610100020316600290048015610c905780601f10610c6557610100808354040283529160200191610c90565b820191906000526020600020905b815481529060010190602001808311610c7357829003601f168201915b5050505050815260200160028201805480602002602001604051908101604052809291908181526020018280548015610d1e57602002820191906000526020600020905b8160009054906101000a900473ffffffffffffffffffffffffffffffffffffffff1673ffffffffffffffffffffffffffffffffffffffff1681526020019060010190808311610cd4575b5050505050815260200160038201548152505090508481602001819052507fdae5c6118bdacdb1a752359d2bdaec91973aa87c89a76a80b6d615293b9b3cfc856040518080602001828103825283818151815260200191508051906020019080838360005b83811015610d9e578082015181840152602081019050610d83565b50505050905090810190601f168015610dcb5780820380516001836020036101000a031916815260200191505b509250505060405180910390a184935050505092915050565b6000336000600280549050111515610e64576040517f08c379a000000000000000000000000000000000000000000000000000000000815260040180806020018281038252601a8152602001807f54686572652069732063757272656e746c79206e6f207573657200000000000081525060200191505060405180910390fd5b8073ffffffffffffffffffffffffffffffffffffffff166002600160008473ffffffffffffffffffffffffffffffffffffffff1673ffffffffffffffffffffffffffffffffffffffff16815260200190815260200160002060030154815481101515610ecc57fe5b9060005260206000200160009054906101000a900473ffffffffffffffffffffffffffffffffffffffff1673ffffffffffffffffffffffffffffffffffffffff16141515610f82576040517f08c379a00000000000000000000000000000000000000000000000000000000081526004018080602001828103825260138152602001807f5573657220646f6573206e6f742065786973740000000000000000000000000081525060200191505060405180910390fd5b6001600385815481101515610f9357fe5b90600052602060002090600402016002018054905003831415156110ab576000600385815481101515610fc257fe5b90600052602060002090600402016002016001600387815481101515610fe457fe5b9060005260206000209060040201600201805490500381548110151561100657fe5b9060005260206000200160009054906101000a900473ffffffffffffffffffffffffffffffffffffffff1690508060038681548110151561104357fe5b90600052602060002090600402016002018581548110151561106157fe5b9060005260206000200160006101000a81548173ffffffffffffffffffffffffffffffffffffffff021916908373ffffffffffffffffffffffffffffffffffffffff160217905550505b6003848154811015156110ba57fe5b9060005260206000209060040201600201838154811015156110d857fe5b9060005260206000200160006101000a81549073ffffffffffffffffffffffffffffffffffffffff02191690557f6a232fe59620d8d63f773cae432d2aaf20bc5373b0403dbb3bbf4d6dc571279860038581548110151561113557fe5b90600052602060002090600402016001013360405180806020018373ffffffffffffffffffffffffffffffffffffffff1673ffffffffffffffffffffffffffffffffffffffff1681526020018281038252848181546001816001161561010002031660029004815260200191508054600181600116156101000203166002900480156112025780601f106111d757610100808354040283529160200191611202565b820191906000526020600020905b8154815290600101906020018083116111e557829003601f168201915b5050935050505060405180910390a1600191505092915050565b60008060009054906101000a900460ff161515611600573360006002805490501115156112b1576040517f08c379a000000000000000000000000000000000000000000000000000000000815260040180806020018281038252601a8152602001807f54686572652069732063757272656e746c79206e6f207573657200000000000081525060200191505060405180910390fd5b8073ffffffffffffffffffffffffffffffffffffffff166002600160008473ffffffffffffffffffffffffffffffffffffffff1673ffffffffffffffffffffffffffffffffffffffff1681526020019081526020016000206003015481548110151561131957fe5b9060005260206000200160009054906101000a900473ffffffffffffffffffffffffffffffffffffffff1673ffffffffffffffffffffffffffffffffffffffff161415156113cf576040517f08c379a00000000000000000000000000000000000000000000000000000000081526004018080602001828103825260138152602001807f5573657220646f6573206e6f742065786973740000000000000000000000000081525060200191505060405180910390fd5b601e6003848154811015156113e057fe5b90600052602060002090600402016002018054905010151561146a576040517f08c379a00000000000000000000000000000000000000000000000000000000081526004018080602001828103825260118152602001807f476174686572696e672069732066756c6c00000000000000000000000000000081525060200191505060405180910390fd5b60038381548110151561147957fe5b90600052602060002090600402016002013390806001815401808255809150509060018203906000526020600020016000909192909190916101000a81548173ffffffffffffffffffffffffffffffffffffffff021916908373ffffffffffffffffffffffffffffffffffffffff160217905550507fabaf8ccb8d157ccdbd12c46218c969688001139cff697e11270756c64f3e02fe60038481548110151561151e57fe5b90600052602060002090600402016001013360405180806020018373ffffffffffffffffffffffffffffffffffffffff1673ffffffffffffffffffffffffffffffffffffffff1681526020018281038252848181546001816001161561010002031660029004815260200191508054600181600116156101000203166002900480156115eb5780601f106115c0576101008083540402835291602001916115eb565b820191906000526020600020905b8154815290600101906020018083116115ce57829003601f168201915b5050935050505060405180910390a160019150505b919050565b600060019054906101000a900473ffffffffffffffffffffffffffffffffffffffff1673ffffffffffffffffffffffffffffffffffffffff163373ffffffffffffffffffffffffffffffffffffffff161415156116ca576040517f08c379a000000000000000000000000000000000000000000000000000000000815260040180806020018281038252601a8152602001807f436f6e7472616374206f776e657220616363657373206f6e6c7900000000000081525060200191505060405180910390fd5b600060019054906101000a900473ffffffffffffffffffffffffffffffffffffffff1673ffffffffffffffffffffffffffffffffffffffff16ff5b6000336000600280549050111515611785576040517f08c379a000000000000000000000000000000000000000000000000000000000815260040180806020018281038252601a8152602001807f54686572652069732063757272656e746c79206e6f207573657200000000000081525060200191505060405180910390fd5b8073ffffffffffffffffffffffffffffffffffffffff166002600160008473ffffffffffffffffffffffffffffffffffffffff1673ffffffffffffffffffffffffffffffffffffffff168152602001908152602001600020600301548154811015156117ed57fe5b9060005260206000200160009054906101000a900473ffffffffffffffffffffffffffffffffffffffff1673ffffffffffffffffffffffffffffffffffffffff161415156118a3576040517f08c379a00000000000000000000000000000000000000000000000000000000081526004018080602001828103825260138152602001807f5573657220646f6573206e6f742065786973740000000000000000000000000081525060200191505060405180910390fd5b836003818154811015156118b357fe5b906000526020600020906004020160000160009054906101000a900473ffffffffffffffffffffffffffffffffffffffff1673ffffffffffffffffffffffffffffffffffffffff163373ffffffffffffffffffffffffffffffffffffffff1614151561191e57600080fd5b600060038681548110151561192f57fe5b906000526020600020906004020160020180549050905060006001820390508086141515611a2b57600060038881548110151561196857fe5b90600052602060002090600402016002018281548110151561198657fe5b9060005260206000200160009054906101000a900473ffffffffffffffffffffffffffffffffffffffff169050806003898154811015156119c357fe5b9060005260206000209060040201600201888154811015156119e157fe5b9060005260206000200160006101000a81548173ffffffffffffffffffffffffffffffffffffffff021916908373ffffffffffffffffffffffffffffffffffffffff160217905550505b600387815481101515611a3a57fe5b906000526020600020906004020160020181815481101515611a5857fe5b9060005260206000200160006101000a81549073ffffffffffffffffffffffffffffffffffffffff0219169055600194505050505092915050565b6000608060405190810160405280600180811115611aad57fe5b815260200183815260200160008152602001600280549050815250600160008573ffffffffffffffffffffffffffffffffffffffff1673ffffffffffffffffffffffffffffffffffffffff16815260200190815260200160002060008201518160000160006101000a81548160ff02191690836001811115611b2b57fe5b02179055506020820151816001019080519060200190611b4c929190612f1a565b50604082015181600201556060820151816003015590505060028390806001815401808255809150509060018203906000526020600020016000909192909190916101000a81548173ffffffffffffffffffffffffffffffffffffffff021916908373ffffffffffffffffffffffffffffffffffffffff160217905550507f187047b56eb20e7a0313254e37dc60b8c1a9d25707114d2caaaee420b2b7ec2383604051808273ffffffffffffffffffffffffffffffffffffffff1673ffffffffffffffffffffffffffffffffffffffff16815260200191505060405180910390a182905092915050565b6000336000600280549050111515611cb6576040517f08c379a000000000000000000000000000000000000000000000000000000000815260040180806020018281038252601a8152602001807f54686572652069732063757272656e746c79206e6f207573657200000000000081525060200191505060405180910390fd5b8073ffffffffffffffffffffffffffffffffffffffff166002600160008473ffffffffffffffffffffffffffffffffffffffff1673ffffffffffffffffffffffffffffffffffffffff16815260200190815260200160002060030154815481101515611d1e57fe5b9060005260206000200160009054906101000a900473ffffffffffffffffffffffffffffffffffffffff1673ffffffffffffffffffffffffffffffffffffffff16141515611dd4576040517f08c379a00000000000000000000000000000000000000000000000000000000081526004018080602001828103825260138152602001807f5573657220646f6573206e6f742065786973740000000000000000000000000081525060200191505060405180910390fd5b82600381815481101515611de457fe5b906000526020600020906004020160000160009054906101000a900473ffffffffffffffffffffffffffffffffffffffff1673ffffffffffffffffffffffffffffffffffffffff163373ffffffffffffffffffffffffffffffffffffffff16141515611e4f57600080fd5b60006001600380549050039050611e64612edb565b600382815481101515611e7357fe5b9060005260206000209060040201608060405190810160405290816000820160009054906101000a900473ffffffffffffffffffffffffffffffffffffffff1673ffffffffffffffffffffffffffffffffffffffff1673ffffffffffffffffffffffffffffffffffffffff168152602001600182018054600181600116156101000203166002900480601f016020809104026020016040519081016040528092919081815260200182805460018160011615610100020316600290048015611f7c5780601f10611f5157610100808354040283529160200191611f7c565b820191906000526020600020905b815481529060010190602001808311611f5f57829003601f168201915b505050505081526020016002820180548060200260200160405190810160405280929190818152602001828054801561200a57602002820191906000526020600020905b8160009054906101000a900473ffffffffffffffffffffffffffffffffffffffff1673ffffffffffffffffffffffffffffffffffffffff1681526020019060010190808311611fc0575b5050505050815260200160038201548152505090506000861015151561202f57600080fd5b8060038781548110151561203f57fe5b906000526020600020906004020160008201518160000160006101000a81548173ffffffffffffffffffffffffffffffffffffffff021916908373ffffffffffffffffffffffffffffffffffffffff16021790555060208201518160010190805190602001906120b0929190612f1a565b5060408201518160020190805190602001906120cd929190612f9a565b5060608201518160030155905050858160600181815250506003828154811015156120f457fe5b9060005260206000209060040201600080820160006101000a81549073ffffffffffffffffffffffffffffffffffffffff021916905560018201600061213a9190613024565b60028201600061214a919061306c565b600382016000905550506000600160003373ffffffffffffffffffffffffffffffffffffffff1673ffffffffffffffffffffffffffffffffffffffff168152602001908152602001600020600201541115156121a557600080fd5b600160003373ffffffffffffffffffffffffffffffffffffffff1673ffffffffffffffffffffffffffffffffffffffff16815260200190815260200160002060020160008154809291906001900391905055506001945050505050919050565b6000816000600280549050111515612285576040517f08c379a000000000000000000000000000000000000000000000000000000000815260040180806020018281038252601a8152602001807f54686572652069732063757272656e746c79206e6f207573657200000000000081525060200191505060405180910390fd5b8073ffffffffffffffffffffffffffffffffffffffff166002600160008473ffffffffffffffffffffffffffffffffffffffff1673ffffffffffffffffffffffffffffffffffffffff168152602001908152602001600020600301548154811015156122ed57fe5b9060005260206000200160009054906101000a900473ffffffffffffffffffffffffffffffffffffffff1673ffffffffffffffffffffffffffffffffffffffff161415156123a3576040517f08c379a00000000000000000000000000000000000000000000000000000000081526004018080602001828103825260138152602001807f5573657220646f6573206e6f742065786973740000000000000000000000000081525060200191505060405180910390fd5b600060018111156123b057fe5b600160003373ffffffffffffffffffffffffffffffffffffffff1673ffffffffffffffffffffffffffffffffffffffff16815260200190815260200160002060000160009054906101000a900460ff16600181111561240b57fe5b141515612480576040517f08c379a00000000000000000000000000000000000000000000000000000000081526004018080602001828103825260128152602001807f41646d696e20616363657373206f6e6c7921000000000000000000000000000081525060200191505060405180910390fd5b6000600160008573ffffffffffffffffffffffffffffffffffffffff1673ffffffffffffffffffffffffffffffffffffffff16815260200190815260200160002060000160006101000a81548160ff021916908360018111156124df57fe5b02179055507f873b6546df550db4e197c19f621af58777f109107ed897212d3ab52d5a9f2ede83604051808273ffffffffffffffffffffffffffffffffffffffff1673ffffffffffffffffffffffffffffffffffffffff16815260200191505060405180910390a182915050919050565b600060019054906101000a900473ffffffffffffffffffffffffffffffffffffffff1681565b60038181548110151561258557fe5b90600052602060002090600402016000915090508060000160009054906101000a900473ffffffffffffffffffffffffffffffffffffffff1690806001018054600181600116156101000203166002900480601f0160208091040260200160405190810160405280929190818152602001828054600181600116156101000203166002900480156126575780601f1061262c57610100808354040283529160200191612657565b820191906000526020600020905b81548152906001019060200180831161263a57829003601f168201915b5050505050908060030154905083565b600060603360006002805490501115156126e9576040517f08c379a000000000000000000000000000000000000000000000000000000000815260040180806020018281038252601a8152602001807f54686572652069732063757272656e746c79206e6f207573657200000000000081525060200191505060405180910390fd5b8073ffffffffffffffffffffffffffffffffffffffff166002600160008473ffffffffffffffffffffffffffffffffffffffff1673ffffffffffffffffffffffffffffffffffffffff1681526020019081526020016000206003015481548110151561275157fe5b9060005260206000200160009054906101000a900473ffffffffffffffffffffffffffffffffffffffff1673ffffffffffffffffffffffffffffffffffffffff16141515612807576040517f08c379a00000000000000000000000000000000000000000000000000000000081526004018080602001828103825260138152602001807f5573657220646f6573206e6f742065786973740000000000000000000000000081525060200191505060405180910390fd5b600160003373ffffffffffffffffffffffffffffffffffffffff1673ffffffffffffffffffffffffffffffffffffffff168152602001908152602001600020600201548473__StringUtils___________________________6346bdca9a826040518263ffffffff167c0100000000000000000000000000000000000000000000000000000000028152600401808060200180602001838103835284818151815260200191508051906020019080838360005b838110156128d55780820151818401526020810190506128ba565b50505050905090810190601f1680156129025780820380516001836020036101000a031916815260200191505b50838103825260008152602001602001935050505060206040518083038186803b15801561292f57600080fd5b505af4158015612943573d6000803e3d6000fd5b505050506040513d602081101561295957600080fd5b81019080805190602001909291905050501515156129df576040517f08c379a00000000000000000000000000000000000000000000000000000000081526004018080602001828103825260168152602001807f537472696e672063616e6e6f7420626520656d7074790000000000000000000081525060200191505060405180910390fd5b6129e7612edb565b6080604051908101604052803373ffffffffffffffffffffffffffffffffffffffff1681526020018881526020016000604051908082528060200260200182016040528015612a455781602001602082028038833980820191505090505b5081526020016003805490508152509050600160003373ffffffffffffffffffffffffffffffffffffffff1673ffffffffffffffffffffffffffffffffffffffff168152602001908152602001600020600201600081548092919060010191905055506003819080600181540180825580915050906001820390600052602060002090600402016000909192909190915060008201518160000160006101000a81548173ffffffffffffffffffffffffffffffffffffffff021916908373ffffffffffffffffffffffffffffffffffffffff1602179055506020820151816001019080519060200190612b39929190612f1a565b506040820151816002019080519060200190612b56929190612f9a565b50606082015181600301555050507f3d30e143bc7105c6f61a763eaf49de50193c86d8dee427afe8de8a8cc39c7ddf600160003373ffffffffffffffffffffffffffffffffffffffff1673ffffffffffffffffffffffffffffffffffffffff1681526020019081526020016000206002015482602001516040518083815260200180602001828103825283818151815260200191508051906020019080838360005b83811015612c13578082015181840152602081019050612bf8565b50505050905090810190601f168015612c405780820380516001836020036101000a031916815260200191505b50935050505060405180910390a1600160003373ffffffffffffffffffffffffffffffffffffffff1673ffffffffffffffffffffffffffffffffffffffff1681526020019081526020016000206002015481602001518090509550955050505050915091565b60016020528060005260406000206000915090508060000160009054906101000a900460ff1690806001018054600181600116156101000203166002900480601f016020809104026020016040519081016040528092919081815260200182805460018160011615610100020316600290048015612d655780601f10612d3a57610100808354040283529160200191612d65565b820191906000526020600020905b815481529060010190602001808311612d4857829003601f168201915b5050505050908060020154908060030154905084565b60006001811115612d8857fe5b600160003373ffffffffffffffffffffffffffffffffffffffff1673ffffffffffffffffffffffffffffffffffffffff16815260200190815260200160002060000160009054906101000a900460ff166001811115612de357fe5b141515612e58576040517f08c379a00000000000000000000000000000000000000000000000000000000081526004018080602001828103825260128152602001807f41646d696e20616363657373206f6e6c7921000000000000000000000000000081525060200191505060405180910390fd5b6000809054906101000a900460ff16156000806101000a81548160ff021916908315150217905550565b6000600160008373ffffffffffffffffffffffffffffffffffffffff1673ffffffffffffffffffffffffffffffffffffffff16815260200190815260200160002060000160009054906101000a900460ff169050919050565b608060405190810160405280600073ffffffffffffffffffffffffffffffffffffffff1681526020016060815260200160608152602001600081525090565b828054600181600116156101000203166002900490600052602060002090601f016020900481019282601f10612f5b57805160ff1916838001178555612f89565b82800160010185558215612f89579182015b82811115612f88578251825591602001919060010190612f6d565b5b509050612f96919061308d565b5090565b828054828255906000526020600020908101928215613013579160200282015b828111156130125782518260006101000a81548173ffffffffffffffffffffffffffffffffffffffff021916908373ffffffffffffffffffffffffffffffffffffffff16021790555091602001919060010190612fba565b5b50905061302091906130b2565b5090565b50805460018160011615610100020316600290046000825580601f1061304a5750613069565b601f016020900490600052602060002090810190613068919061308d565b5b50565b508054600082559060005260206000209081019061308a919061308d565b50565b6130af91905b808211156130ab576000816000905550600101613093565b5090565b90565b6130f291905b808211156130ee57600081816101000a81549073ffffffffffffffffffffffffffffffffffffffff0219169055506001016130b8565b5090565b9056fea165627a7a723058206a1beb48993b374edaaf541726825e2f046a220b02476bd9a336e2a826f0b26e0029",
  "source": "pragma solidity ^0.5.0;\n\nimport \"../libraries/StringUtils.sol\";\n\ncontract Gather {\n    bool private stopped = false;\n    address payable public owner;\n    enum UserStatus { Admin, Regular }\n\n    struct User {\n        UserStatus status;\n        string displayName;\n        uint gatheringCount;\n        uint index;\n    }\n    mapping(address => User) public users;\n    address[] private userIndex;\n\n    uint private constant MAX_GATHERING_COUNT = 5;\n    uint private constant MAX_PARTICIPANT_COUNT = 30;\n    struct Gathering {\n        address organizer;\n        string name;\n        address[] participants;\n        uint index;\n    }\n    Gathering[] public gatheringIndex;\n\n    event LogAdminAdded(address _address);\n    event LogUserAdded(address _address);\n    event LogNewGathering(uint count, string _string);\n    event LogGatheringJoined(string _string, address _address);\n    event LogLeftGathering(string _string, address _address);\n    event LogNameChange(string _string);\n    event LogDescriptionChange(string _string);\n\n    modifier verifyAdmin() {\n        require(users[msg.sender].status == UserStatus.Admin, \"Admin access only!\"); \n        _;\n    }\n\n    modifier verifyUser(address _address) {\n        require(userIndex.length > 0, \"There is currently no user\");\n        require(userIndex[users[_address].index] == _address, \"User does not exist\");\n        _;\n    }\n\n    modifier verifyOrganizer(uint index) {\n        require(msg.sender == gatheringIndex[index].organizer ); \n        _;\n    }\n\n    modifier organizedGatheringBelowMax(uint count) {\n        count <= MAX_GATHERING_COUNT;\n        _;\n    }\n\n    modifier notEmpty(string memory _string) {\n        require (!StringUtils.equal(_string, \"\"), \"String cannot be empty\");\n        _;\n    }\n\n    modifier stopWhenNeeded() { if (!stopped) _; }\n\n    // Constructor\n    constructor()\n        public\n    {\n        owner = msg.sender;\n        users[msg.sender] = User({status: UserStatus.Admin, displayName: \"Admin\", gatheringCount: 0, index: userIndex.length});\n        userIndex.push(msg.sender);\n        emit LogAdminAdded(msg.sender);\n    }\n\n    // Functions\n    function kill() public {\n        require(msg.sender == owner, \"Contract owner access only\");\n        selfdestruct(owner);\n    }\n\n    function toggleGatheringActive() public verifyAdmin() { stopped = !stopped; }\n\n    // Adds a new user to the platform\n    function addUser(address _address, string memory _displayName)\n        public\n        returns(address)\n    {\n        users[_address] = User({status: UserStatus.Regular, displayName: _displayName, gatheringCount: 0, index: userIndex.length});\n        userIndex.push(_address);\n        emit LogUserAdded(_address);\n        return _address;\n    }\n\n    function getUserStatus(address _address) \n        public \n        view\n        returns (UserStatus userStatus) \n    {\n        return users[_address].status;\n    }\n\n    // An admin can make an existing user an admin\n    function addAdmin(address newAdminAddress)\n        public\n        verifyUser(newAdminAddress)\n        verifyAdmin()\n        returns(address)\n    {\n        users[newAdminAddress].status = UserStatus.Admin;\n        emit LogAdminAdded(newAdminAddress);\n        return newAdminAddress;\n    }\n\n    // Any user can organize a new gathering\n    // Each user can organize up to a maximum of 5 gatherings\n    function organizeNewGathering(string memory _name)\n        public\n        verifyUser(msg.sender)\n        organizedGatheringBelowMax(users[msg.sender].gatheringCount)\n        notEmpty(_name)\n        returns(uint, string memory)\n    {\n        Gathering memory g = Gathering({organizer: msg.sender, name: _name, participants: new address[](0), index: gatheringIndex.length});\n        users[msg.sender].gatheringCount++;\n        gatheringIndex.push(g);\n        emit LogNewGathering(users[msg.sender].gatheringCount, g.name);\n        return(users[msg.sender].gatheringCount, g.name);\n    }\n\n    // The organizer can rename the gathering\n    function setGatheringName(uint index, string memory gatheringName)\n        public\n        verifyOrganizer(index)\n        notEmpty(gatheringName)\n        returns(string memory)\n    {\n        Gathering memory g = gatheringIndex[index];\n        g.name = gatheringName;\n        emit LogNameChange(gatheringName);\n        return gatheringName;\n    }\n\n    // The gatherings organizer can remove a gathering\n    function removeGathering(uint index)\n        public\n        verifyUser(msg.sender)\n        verifyOrganizer(index)\n        returns(bool)\n    {\n        // remove from gatheringIndex\n        uint lastIndex = gatheringIndex.length - 1;\n        Gathering memory lastIndexGathering = gatheringIndex[lastIndex];\n        require(index >= 0);\n        gatheringIndex[index] = lastIndexGathering;\n        lastIndexGathering.index = index;\n        delete gatheringIndex[lastIndex];\n    \n        // Update organizer's gathering count\n        require(users[msg.sender].gatheringCount > 0);\n        users[msg.sender].gatheringCount--;\n        return true;\n    }\n\n    // Any user can join any gathering\n    function joinGathering(uint index)\n        public\n        stopWhenNeeded()\n        verifyUser(msg.sender)\n        returns(bool)\n    {\n        require(gatheringIndex[index].participants.length < MAX_PARTICIPANT_COUNT, \"Gathering is full\");\n        gatheringIndex[index].participants.push(msg.sender);\n        emit LogGatheringJoined(gatheringIndex[index].name, msg.sender);\n        return true;\n    }\n\n    // A participant can leave a gathering\n    function leaveGathering(uint index, uint participantIndex)\n        public\n        verifyUser(msg.sender)\n        returns(bool)\n    {\n        if(participantIndex != (gatheringIndex[index].participants.length - 1)) {\n            address lastParticipant = gatheringIndex[index].participants[gatheringIndex[index].participants.length - 1];\n            gatheringIndex[index].participants[participantIndex] = lastParticipant;\n        }\n        delete gatheringIndex[index].participants[participantIndex];\n        emit LogLeftGathering(gatheringIndex[index].name, msg.sender);\n        return true;\n    }\n\n    // A gathering's organizer can remove a participant\n    function removeParticipant(uint index, uint participantIndex)\n        public\n        verifyUser(msg.sender)\n        verifyOrganizer(index)\n        returns(bool)\n    {\n        uint participantCount = gatheringIndex[index].participants.length;\n        uint lastIndex = participantCount - 1;\n        \n        if(participantIndex != lastIndex) {\n            address lastParticipant = gatheringIndex[index].participants[lastIndex];\n            gatheringIndex[index].participants[participantIndex] = lastParticipant;\n        }\n        delete gatheringIndex[index].participants[lastIndex];\n        return true;\n    }\n\n    // Fallback function\n    function() external { msg.sender; }\n}\n",
  "sourcePath": "/Users/elsha/ethDevBootcamp/final-project-elshaek/contracts/Gather.sol",
  "compiler": {
    "name": "solc",
    "version": "0.5.0+commit.1d4f565a.Emscripten.clang"
  },
  "schemaVersion": "3.0.0",
  "updatedAt": "2019-01-27T21:16:58.806Z",
  "devdoc": {
    "methods": {}
  },
  "userdoc": {
    "methods": {}
  }
}