{
  "contractName": "StringUtils",
  "abi": [
    {
      "constant": true,
      "inputs": [
        {
          "name": "_a",
          "type": "string"
        },
        {
          "name": "_b",
          "type": "string"
        }
      ],
      "name": "compare",
      "outputs": [
        {
          "name": "",
          "type": "int256"
        }
      ],
      "payable": false,
      "stateMutability": "pure",
      "type": "function",
      "signature": "0x3a96fdd7"
    },
    {
      "constant": true,
      "inputs": [
        {
          "name": "_a",
          "type": "string"
        },
        {
          "name": "_b",
          "type": "string"
        }
      ],
      "name": "equal",
      "outputs": [
        {
          "name": "",
          "type": "bool"
        }
      ],
      "payable": false,
      "stateMutability": "pure",
      "type": "function",
      "signature": "0x46bdca9a"
    }
  ],
  "bytecode": "0x610640610030600b82828239805160001a6073146000811461002057610022565bfe5b5030600052607381538281f3fe7300000000000000000000000000000000000000003014608060405260043610610063576000357c0100000000000000000000000000000000000000000000000000000000900463ffffffff1680633a96fdd71461006857806346bdca9a146101ce575b600080fd5b6101b86004803603604081101561007e57600080fd5b810190808035906020019064010000000081111561009b57600080fd5b8201836020820111156100ad57600080fd5b803590602001918460018302840111640100000000831117156100cf57600080fd5b91908080601f016020809104026020016040519081016040528093929190818152602001838380828437600081840152601f19601f8201169050808301925050505050505091929192908035906020019064010000000081111561013257600080fd5b82018360208201111561014457600080fd5b8035906020019184600183028401116401000000008311171561016657600080fd5b91908080601f016020809104026020016040519081016040528093929190818152602001838380828437600081840152601f19601f820116905080830192505050505050509192919290505050610338565b6040518082815260200191505060405180910390f35b61031e600480360360408110156101e457600080fd5b810190808035906020019064010000000081111561020157600080fd5b82018360208201111561021357600080fd5b8035906020019184600183028401116401000000008311171561023557600080fd5b91908080601f016020809104026020016040519081016040528093929190818152602001838380828437600081840152601f19601f8201169050808301925050505050505091929192908035906020019064010000000081111561029857600080fd5b8201836020820111156102aa57600080fd5b803590602001918460018302840111640100000000831117156102cc57600080fd5b91908080601f016020809104026020016040519081016040528093929190818152602001838380828437600081840152601f19601f8201169050808301925050505050505091929192905050506105fe565b604051808215151515815260200191505060405180910390f35b600060608390506060839050600082519050808251101561035857815190505b60008090505b818110156105a457828181518110151561037457fe5b9060200101517f010000000000000000000000000000000000000000000000000000000000000090047f0100000000000000000000000000000000000000000000000000000000000000027effffffffffffffffffffffffffffffffffffffffffffffffffffffffffffff191684828151811015156103ef57fe5b9060200101517f010000000000000000000000000000000000000000000000000000000000000090047f0100000000000000000000000000000000000000000000000000000000000000027effffffffffffffffffffffffffffffffffffffffffffffffffffffffffffff1916101561048e577fffffffffffffffffffffffffffffffffffffffffffffffffffffffffffffffff9450505050506105f8565b828181518110151561049c57fe5b9060200101517f010000000000000000000000000000000000000000000000000000000000000090047f0100000000000000000000000000000000000000000000000000000000000000027effffffffffffffffffffffffffffffffffffffffffffffffffffffffffffff1916848281518110151561051757fe5b9060200101517f010000000000000000000000000000000000000000000000000000000000000090047f0100000000000000000000000000000000000000000000000000000000000000027effffffffffffffffffffffffffffffffffffffffffffffffffffffffffffff191611156105975760019450505050506105f8565b808060010191505061035e565b508151835110156105da577fffffffffffffffffffffffffffffffffffffffffffffffffffffffffffffffff93505050506105f8565b8151835111156105f057600193505050506105f8565b600093505050505b92915050565b60008061060b8484610338565b1490509291505056fea165627a7a7230582038a8ab0926c40700f37228871010f66ebf173d60c4fb2eb93b09c08a2c0c98680029",
  "source": "// library from https://github.com/ethereum/dapp-bin/blob/master/library/stringUtils.sol\n\npragma solidity ^0.5.0;\n\nlibrary StringUtils {\n    /// @dev Does a byte-by-byte lexicographical comparison of two strings.\n    /// @return a negative number if `_a` is smaller, zero if they are equal\n    /// and a positive numbe if `_b` is smaller.\n    function compare(string memory _a, string memory _b) public pure returns (int) {\n        bytes memory a = bytes(_a);\n        bytes memory b = bytes(_b);\n        uint minLength = a.length;\n        if (b.length < minLength) minLength = b.length;\n        //@todo unroll the loop into increments of 32 and do full 32 byte comparisons\n        for (uint i = 0; i < minLength; i ++) {\n            if (a[i] < b[i])\n                return -1;\n            else if (a[i] > b[i])\n                return 1;\n        }\n        \n        if (a.length < b.length) {\n            return -1;\n        } else if (a.length > b.length) {\n            return 1;\n        } else {\n            return 0;\n        } \n    }\n    // Compares two strings and returns true iff they are equal.\n    function equal(string memory _a, string memory _b) public pure returns (bool) {\n        return compare(_a, _b) == 0;\n    }\n}\n",
  "sourcePath": "/Users/elsha/ethDevBootcamp/final-project-elshaek/libraries/StringUtils.sol",
  "compiler": {
    "name": "solc",
    "version": "0.5.0+commit.1d4f565a.Emscripten.clang"
  },
  "schemaVersion": "3.0.0",
  "updatedAt": "2019-01-27T14:46:49.818Z",
  "devdoc": {
    "methods": {
      "compare(string,string)": {
        "details": "Does a byte-by-byte lexicographical comparison of two strings.",
        "return": "a negative number if `_a` is smaller, zero if they are equal and a positive numbe if `_b` is smaller."
      }
    }
  },
  "userdoc": {
    "methods": {}
  }
}